:0400000073EF00F0AA
:100008005682FACF06F0FBCF07F0D9CF08F0DACF47
:1000180009F00E01BDA113EF00F015EF00F020EF7D
:1000280000F0C5A11AEF00F01CEF00F020EF00F07F
:10003800BFEC94F069EF00F0BDA325EF00F027EFC7
:1000480000F032EF00F0C5A32CEF00F02EEF00F027
:1000580032EF00F0BAEC94F069EF00F0BDA537EF8D
:1000680000F039EF00F044EF00F0C5A53EEF00F0D6
:1000780040EF00F044EF00F0B5EC94F069EF00F0C9
:10008800F2AC49EF00F04BEF00F069EF00F0C0ABC5
:1000980050EF00F052EF00F069EF00F0C8AB57EFF7
:1000A80000F059EF00F069EF00F002D867EF00F0B8
:1000B8000500FA6E0101D251FD6ED351FE6ED45186
:1000C800FF6EFA50120069EF00F009C0DAFF08C0AD
:1000D800D9FF07C0FBFF06C0FAFF56921100A4EF34
:0200E80093F093
:10FE880000403120524D4F56202D31303030303027
:10FE9800202D313030303030202D3130303030307E
:10FEA800202D313030303030202D3130303030306E
:10FEB8000A00257520202020536865657473202565
:10FEC8007522202020202000403120524D4F5620FE
:10FED80031203120312031203120310A0025752090
:10FEE8002020536865657473202575222020202002
:10FEF80000202053746172742020202020202020AC
:10FF0800202020002020202020202020204368615D
:10FF18006E676520202000202053746172742020B1
:10FF28004368616E6765202020002020202020364D
:10FF380022202020202020202020002020202020D7
:10FF480020202020313222202020200020202020A4
:10FF5800203622202031322220202020002020207C
:10FF680054617065204C656E677468202000546F7A
:10FF780074616C20536865657473202575200023AF
:10FF8800206F66205368656574733A2020256900E0
:10FF98002575205368656574732025752220200017
:10FFA80020202020202020204D6178203939390058
:10FFB80023206F66205368656574733A20256900AD
:10FFC80023206F66205368656574733A256900407D
:10FFD80031204143434620353030300A00402569FE
:10FFE80020414343462025690A0040256920524D97
:08FFF8004F562025690A0000A4
:020000040001F9
:100000000D50800B166E0D500D24186E0CAE0BEFBC
:1000100080F00DEF80F00EEF80F018801850D8B40B
:1000200014EF80F016EF80F02BEF80F01828D8A4A2
:100030001CEF80F01EEF80F026EF80F0000E0A6EBD
:10004000000E0B6E000E0C6E000E0D6E0C8E000E70
:100050000D6E33EF80F0000E0A6E000E0B6E000E78
:100060000C6E000E0D6E1150800B176E1650171887
:10007000D8B43DEF80F03FEF80F040EF80F0168C79
:1000800011501124176E10AE48EF80F04AEF80F047
:100090004BEF80F017801750D8B451EF80F053EF3A
:1000A00080F068EF80F01728D8A459EF80F05BEF5C
:1000B00080F063EF80F0000E0E6E000E0F6E000EEB
:1000C000106E000E116E108E000E116E70EF80F02B
:1000D000000E0E6E000E0F6E000E106E000E116EF2
:1000E0001850175CD8B077EF80F079EF80F0A0EF70
:1000F00080F016AC7EEF80F080EF80F082EF80F031
:10010000800E161A18C019F017C018F019C017F091
:100110000AC019F00EC00AF019C00EF00BC019F099
:100120000FC00BF019C00FF00CC019F010C00CF08C
:1001300019C010F00DC019F011C00DF019C011F068
:10014000000E196E185017C012F0136A125E000EDE
:10015000135A13BEB5EF80F0135009E11A0E125C6A
:10016000D8A0B5EF80F0B7EF80F0EEEF80F00A5046
:100170000B100C100D10D8A4C0EF80F0C3EF80F06E
:10018000010EC4EF80F0000E196E000E0A6E000E14
:100190000B6E000E0C6E000E0D6E17C018F0F7EF10
:1001A00080F019A0D6EF80F0D8EF80F0DEEF80F07D
:1001B000D89019300109196EE0EF80F0D89019320B
:1001C0000AA0E5EF80F0E7EF80F0E8EF80F0198E0D
:1001D0000D340D320C320B320A32182A1750185CCB
:1001E000D8A0F5EF80F0F7EF80F0D1EF80F016BCEB
:1001F000FCEF80F0FEEF80F03EEF81F01850D8A4C5
:1002000004EF81F006EF81F010EF81F0000E0A6E2E
:10021000000E0B6E000E0C6E000E0D6E5FEF82F086
:100220000E500A260F500B2210500C2211500D2296
:100230000DA01DEF81F01FEF81F0CBEF81F019A031
:1002400024EF81F026EF81F02CEF81F0D890193067
:100250000109196E2EEF81F0D89019320AA033EF00
:1002600081F035EF81F036EF81F0198E0D340D32CB
:100270000C320B320A32182ACBEF81F00E500A5C96
:100280000F500B5810500C580D50800A126E115020
:10029000800A1258D8B04FEF81F051EF81F07CEF17
:1002A00081F00A500E5C126E0B500F58136E0C50FA
:1002B0001058146E0D501158156EFF0E12240A6E50
:1002C000FF0E13200B6EFF0E14200C6EFF0E152078
:1002D0000D6E800E161A196C1950D8A472EF81F0A9
:1002E00074EF81F084EF81F0010E0A26000E0B22DC
:1002F0000C220D2284EF81F00E500A5E0F500B5A33
:1003000010500C5A11500D5A0A500B100C100D10B1
:10031000D8A48DEF81F08FEF81F0C4EF81F01950F8
:10032000D8A495EF81F097EF81F0C4EF81F0000E33
:100330000A6E000E0B6E000E0C6E000E0D6E5FEF5F
:1003400082F0D8900A360B360C360D3619AEABEF6C
:1003500081F0ADEF81F0AEEF81F00A8019A0B3EF2C
:1003600081F0B5EF81F0B9EF81F0D8801936BBEF9D
:1003700081F0D89019361850D8B4C1EF81F0C3EF8E
:1003800081F0C4EF81F018060CAEC9EF81F0CBEF1D
:1003900081F0A1EF81F0000E176E19AED2EF81F05F
:1003A000D4EF81F0ECEF81F019C012F07F0E12163D
:1003B000D8B4DDEF81F0DFEF81F0E3EF81F0010EE3
:1003C000176EECEF81F00AA0E8EF81F0EAEF81F020
:1003D000ECEF81F0DFEF81F01750D8B4F2EF81F04D
:1003E000F4EF81F01FEF82F0010E0A26000E0B22BF
:1003F0000C220D220DA0FFEF81F001EF82F01FEF24
:1004000082F00AC012F00BC013F00CC014F00DC043
:1004100015F01534153214321332123212C00AF0AC
:1004200013C00BF014C00CF015C00DF01828D8B490
:100430001CEF82F01EEF82F01FEF82F0182A1828BE
:10044000D8B425EF82F027EF82F02FEF82F018501A
:10045000D8A42DEF82F02FEF82F041EF82F0000E52
:100460000A6E000E0B6E000E0C6E000E0D6E185014
:10047000D8A43DEF82F03FEF82F041EF82F0000E12
:10048000166E18A046EF82F048EF82F04BEF82F034
:100490000C8E4CEF82F00C9ED89018300D6E16AE7C
:1004A00054EF82F056EF82F057EF82F00D8E0AC0C3
:1004B0000AF00BC00BF00CC00CF00DC00DF01200D8
:1004C000000E0001A76F000EA66F000EAF6F000EAA
:1004D000AC6FB0EC94F00AC0ADF00BC0AEF0000E03
:1004E0000B6E000E0A6E55EC94F00001936F935161
:1004F000A86FA96B000E0B6E010E0A6E55EC94F0FE
:100500000001936F9351956F946BA8519425A86F38
:10051000A9519521A96F000E0B6E020E0A6E55ECC3
:1005200094F00001936F9351AA6FAB6B000E0B6EAA
:10053000030E0A6E55EC94F00001936F9351956F82
:10054000946BAA519425AA6FAB519521AB6F4EBE07
:10055000B5EF82F04E5007E10A0E4D5CD8B0B3EF14
:1005600082F0B5EF82F0C9EF82F0960E7E6F000E3A
:100570007F6FBA0E806FFE0E816F4DC082F04EC04D
:1005800083F04FC084F050C085F014EC92F00BEF74
:1005900083F04EBED7EF82F04E5007E1640E4D5C03
:1005A000D8B0D5EF82F0D7EF82F0F9EF82F04EBEEF
:1005B000E3EF82F04E5009E10A0E4D5CD8A0E3EF64
:1005C00082F0E5EF82F0F9EF82F0960E7E6F000E7A
:1005D0007F6FE50E806FFE0E816F4DC082F04EC0C2
:1005E00083F04FC084F050C085F014EC92F00BEF14
:1005F00083F0960E7E6F000E7F6F980E806FFF0E59
:10060000816F4DC082F04EC083F04FC084F050C067
:1006100085F014EC92F0000E14EC94F0960E146E2B
:10062000000E156ED0EC93F0400E14EC94F01F0EFB
:10063000146EFF0E156ED0EC93F00001AF51D8A4EC
:1006400024EF83F026EF83F054EF83F0400E14EC98
:1006500094F01F0E146EFF0E156ED0EC93F0040E86
:100660000001946F0C0E936F330EE82EFED7932F7C
:10067000FCD7942FFAD700D0400E14EC94F00C0E57
:10068000146EFF0E156ED0EC93F0040E0001946F03
:100690000C0E936F330EE82EFED7932FFCD7942FBA
:1006A000FAD700D080EF83F0400E14EC94F01F0EC8
:1006B000146EFF0E156ED0EC93F0040E0001946FD3
:1006C0000C0E936F330EE82EFED7932FFCD7942F8A
:1006D000FAD700D0400E14EC94F0F90E146EFE0E12
:1006E000156ED0EC93F0040E0001946F0C0E936F16
:1006F000330EE82EFED7932FFCD7942FFAD700D0D5
:10070000B0EC94F00AC0B0F00BC0B1F00001B051F1
:10071000AD1909E1B151AE19D8B491EF83F093EF5F
:1007200083F0ACEF83F0AD51B05DB151800A936FAF
:10073000AE51800A9359D8B0A0EF83F0A2EF83F0B6
:10074000A6EF83F0000EAF6FA8EF83F0010EAF6F3E
:10075000B0C0ADF0B1C0AEF08EB4B1EF83F0B3EF86
:1007600083F0B7EF83F0010EAC6FB9EF83F0000EAA
:10077000AC6FAC05D8A4BFEF83F0C1EF83F01DEFE1
:1007800083F0AF51D8A4C7EF83F0C9EF83F0D5EF62
:1007900083F0030E0001936F970EE82EFED7932F80
:1007A000FCD700D0000EDFEF83F0030E0001936F43
:1007B000970EE82EFED7932FFCD700D0010E120023
:1007C00027C03FF028C040F029C041F02AC042F0C5
:1007D0002BC043F02CC044F02DC045F02EC046F095
:1007E00046BEF5EF83F0F8EF83F0010EF9EF83F0EA
:1007F000000E3D6E3E6A3D503E10D8B402EF84F0CC
:1008000004EF84F014EF84F0461E451E441E431E80
:10081000421E411E401E3F6C000E402241224222D9
:1008200043224422452246220001F3BF1AEF84F0FE
:100830001CEF84F01DEF84F05192F3BF2AEF84F097
:10084000F35106E1F205D8B028EF84F02AEF84F0E6
:1008500030EF84F0000E3A6E010E396E34EF84F002
:10086000F2C039F0F3C03AF0F0C03BF0F1C03CF018
:100870003D503E10D8A43FEF84F041EF84F048EFA4
:1008800084F051A446EF84F048EF84F04BEF84F0FD
:100890003B06D8A03C06000E486E1F0E476E000EA9
:1008A0000101B96FD0EF84F04706D8A048069A0E30
:1008B0004724D96E010E4820DA6E3FC00AF040C0CE
:1008C0000BF041C00CF042C00DF043C00EF044C02C
:1008D0000FF045C010F046C011F00A0E126E000E67
:1008E000136E000E146E000E156E000E166E000EC6
:1008F000176E000E186E000E196E67EC8BF00AC0B2
:100900002FF00BC030F00CC031F00DC032F00EC033
:1009100033F00FC034F010C035F011C036F02FC0E6
:100920001CF031C01DF0CFEC92F01C50300FDF6E88
:100930003906D8A03A063B06D8A03C063FC00AF0CC
:1009400040C00BF041C00CF042C00DF043C00EF0AF
:1009500044C00FF045C010F046C011F00A0E126EF0
:10096000000E136E000E146E000E156E000E166E45
:10097000000E176E000E186E000E196EA3EC8AF0B2
:100980000AC03FF00BC040F00CC041F00DC042F077
:100990000EC043F00FC044F010C045F011C046F047
:1009A00048BEDBEF84F0485008E14704D8A0DBEFF5
:1009B00084F0DDEF84F00DEF85F03F5040104110E2
:1009C00042104310441045104610D8A4EAEF84F0BA
:1009D000ECEF84F054EF84F03ABEF9EF84F03A5033
:1009E00006E13904D8B0F7EF84F0F9EF84F054EF62
:1009F00084F03CBE04EF85F03C5008E13B04D8A0F5
:100A000004EF85F006EF85F00DEF85F051B20BEFA6
:100A100085F00DEF85F054EF84F03D503E10D8A4E2
:100A200014EF85F016EF85F01DEF85F051A41BEF54
:100A300085F01DEF85F03BEF85F04706D8A048060E
:100A40003D503E10D8A427EF85F029EF85F02FEF19
:100A500085F0000E386E2B0E376E33EF85F0000EEA
:100A6000386E2D0E376E9A0E4724D96E010E48202F
:100A7000DA6E37C0DFFF25C01AF026C01BF09A0ED1
:100A800047241C6E010E48201D6E3BC01EF03CC06A
:100A90001FF0D2EC8EF01AC025F01BC026F0120019
:100AA000A4EC90F0000E0101846F000E836F64C10E
:100AB0000AF065C10BF0000E0D6E050E0C6E40ECD9
:100AC00091F00AC085F10BC086F1FF0E010185256A
:100AD0000C6EFF0E86210D6E66511A080A6E675164
:100AE000D8A0E82A00080B6E70EC8EF00AC012F055
:100AF0000BC013F0000E13BEFF0E146E156E010E28
:100B0000F8EC88F012C07BF113C07CF114C07DF1C9
:100B100015C07EF1010186BF97EF85F0865109E18E
:100B2000060E855DD8A097EF85F099EF85F0EFEF81
:100B300085F066C112F067C113F0000E13BEFF0E00
:100B4000146E156E010EF8EC88F012C028F013C078
:100B500029F014C02AF015C02BF028EC93F028C01F
:100B60007FF129C080F166C112F067C113F0000E59
:100B700013BEFF0E146E156E010EF8EC88F012C055
:100B800020F013C021F014C022F015C023F07BC167
:100B900024F07CC125F07DC126F07EC127F08AECCF
:100BA00092F020C028F021C029F022C02AF023C0F2
:100BB0002BF028EC93F0281E291E284A292A28C049
:100BC00081F129C082F1000E286E000E296E040EFC
:100BD0002A6E410E2B6E28EC93F019EF86F0000E72
:100BE000286E000E296EC00E2A6E400E2B6E28EC69
:100BF00093F028C07FF129C080F1000E286E000E0E
:100C0000296EB80E2A6E400E2B6E28EC93F0281E2B
:100C1000291E284A292A28C081F129C082F1000E04
:100C2000286E000E296E040E2A6E410E2B6E28ECE3
:100C300093F0000E14EC94F06B0E00017E6F010E29
:100C40007F6F760E806FFF0E816F64C182F065C189
:100C500083F014EC92F06B0E146E010E156ED0EC56
:100C600093F0010E0101876FB2EF86F08EB63BEF75
:100C700086F03DEF86F036EF86F0130E0001946F9C
:100C8000880E936F7FC168F180C169F10101681F0F
:100C9000691F684B692B68C195F069C196F087514F
:100CA0004FEC90F0000E0101686F000E696F000EAE
:100CB0006A6F210E681969116A11D8A462EF86F073
:100CC00064EF86F052EF86F0130E0001946F880EE9
:100CD000936F81C195F082C196F0010187514FEC6D
:100CE00090F0000E0101686F000E696F000E6A6FD0
:100CF000210E681969116A11D8A481EF86F083EF7B
:100D000086F071EF86F06407D8A06507645165111D
:100D1000D8A48DEF86F08FEF86F091EF86F0BCEFD0
:100D200086F0834B842B000E14EC94F06B0E0001C4
:100D30007E6F010E7F6F760E806FFF0E816F83C115
:100D400082F084C183F014EC92F06B0E146E010EED
:100D5000156ED0EC93F08EA6B0EF86F0B2EF86F071
:100D6000ABEF86F0010164516511D8A4BAEF86F0AB
:100D7000BCEF86F036EF86F0120062C0D9FF63C088
:100D8000DAFFDECFF6FFDDCFF7FF000EF86E0800CA
:100D9000F550250AD8A4CFEF86F0D1EF86F0D9EF31
:100DA00087F062C0D9FF63C0DAFFDE2A000EDD22C1
:100DB000000E0001F16F000EF06FF0C051F0F1C0B5
:100DC00052F0F269F36962C0D9FF63C0DAFFDECF87
:100DD000F6FFDDCFF7FF000EF86E0800F550640A4D
:100DE000D8B4F5EF86F0F7EF86F00BEF87F062C02E
:100DF000D9FF63C0DAFFDECFF6FFDDCFF7FF000ECD
:100E0000F86E0800F550690AD8A409EF87F00BEFD7
:100E100087F04BEF87F062C0D9FF63C0DAFFDE2AAC
:100E2000000EDD2264C0D9FF65C0DAFFDFCF49F0D4
:100E3000020EDE26DFCF4AF0000EDD2249C0D9FFC8
:100E40004AC0DAFFDECF66F0DDCF67F0000E67BF85
:100E5000FF0E686F696F6A6F6B6F6C6F6D6F60C04C
:100E600025F061C026F066C027F067C028F068C092
:100E700029F069C02AF06AC02BF06BC02CF06CC05E
:100E80002DF06DC02EF0E0EC83F025C060F026C0A0
:100E900061F0F6EF87F062C0D9FF63C0DAFFDECF02
:100EA000F6FFDDCFF7FF000EF86E0800F550750A6B
:100EB000D8A45DEF87F05FEF87F0A0EF87F062C006
:100EC000D9FF63C0DAFFDE2A000EDD2264C0D9FF3D
:100ED00065C0DAFFDFCF49F0020EDE26DFCF4AF031
:100EE000000EDD2249C0D9FF4AC0DAFFDECF4BF049
:100EF000DDCF4CF04BC06EF04CC06FF0706B716B7F
:100F0000726B736B746B756B60C025F061C026F0FB
:100F10006EC027F06FC028F070C029F071C02AF0B1
:100F200072C02BF073C02CF074C02DF075C02EF081
:100F3000F7EC87F025C060F026C061F0F6EF87F08F
:100F400062C0D9FF63C0DAFFDECFF6FFDDCFF7FF67
:100F5000000EF86E0800F550250AD8A4B2EF87F00D
:100F6000B4EF87F0CCEF87F062C0D9FF63C0DAFF3F
:100F7000DE2A000EDD22000E0B6E250E0A6E60C00A
:100F80000CF061C00DF00BEC8EF0000E0001616FF3
:100F9000010E606FF6EF87F062C0D9FF63C0DAFF21
:100FA000DE2A000EDD22000E616F000E606FF6EF8C
:100FB00087F062C0D9FF63C0DAFFDECFF6FFDDCF76
:100FC000F7FF000EF86E0800F5500A6E0B6A60C05D
:100FD0000CF061C00DF00BEC8EF062C0D9FF63C065
:100FE000DAFFDE2A000EDD22C5EF87F012000001D5
:100FF000F3BFFDEF87F0FFEF87F000EF88F051922D
:10100000F3BF0DEF88F0F35106E1F205D8B00BEF16
:1010100088F00DEF88F013EF88F0000E386E010EA7
:10102000376E17EF88F0F2C037F0F3C038F0F0C039
:1010300039F0F1C03AF027C03BF028C03CF029C09D
:101040003DF02AC03EF02BC03FF02CC040F02DC038
:1010500041F02EC042F0000E446E1F0E436E000E93
:101060000101B96FAAEF88F04306D8A044069A0E92
:101070004324D96E010E4420DA6E3BC00AF03CC016
:101080000BF03DC00CF03EC00DF03FC00EF040C074
:101090000FF041C010F042C011F00A0E126E000EA7
:1010A000136E000E146E000E156E000E166E000EFE
:1010B000176E000E186E000E196EA3EC8DF00AC0AC
:1010C0002FF00BC030F00CC031F00DC032F00EC06C
:1010D00033F00FC034F010C035F011C036F02F508F
:1010E000300FDF6E3706D8A038063906D8A03A068A
:1010F0003BC00AF03CC00BF03DC00CF03EC00DF010
:101100003FC00EF040C00FF041C010F042C011F0DF
:101110000A0E126E000E136E000E146E000E156E87
:10112000000E166E000E176E000E186E000E196E71
:101130002BEC8DF00AC03BF00BC03CF00CC03DF036
:101140000DC03EF00EC03FF00FC040F010C041F0A7
:1011500011C042F043504410D8B4B1EF88F0B3EF5F
:1011600088F0E3EF88F03B503C103D103E103F10FC
:10117000401041104210D8A4C0EF88F0C2EF88F0B0
:1011800034EF88F038BECFEF88F0385006E13704EE
:10119000D8B0CDEF88F0CFEF88F034EF88F03ABECA
:1011A000DAEF88F03A5008E13904D8A0DAEF88F095
:1011B000DCEF88F0E3EF88F051B2E1EF88F0E3EF85
:1011C00088F034EF88F025C01AF026C01BF09A0E84
:1011D00043241C6E010E44201D6E39C01EF03AC01F
:1011E0001FF0D2EC8EF01AC025F01BC026F01200C2
:1011F0001A6E1A50D8B4FFEF88F001EF89F023EF90
:1012000089F015BE08EF89F006EF89F023EF89F029
:1012100012C016F013C017F014C018F015C019F062
:10122000161E171E181E191E162A000E1722182227
:10123000192216C01CF017C01DF018C01EF019C0EE
:101240001FF02BEF89F012C01CF013C01DF014C06A
:101250001EF015C01FF01250131014101510D8A452
:1012600034EF89F036EF89F040EF89F0000E126E0E
:10127000000E136E000E146E000E156ED1EF89F085
:10128000960E1B6E4AEF89F01B2AD8901F321E3231
:101290001D321C32000E1C14166E000E1D14176E2B
:1012A000000E1E14186EFE0E1F14196E1650171025
:1012B00018101910D8A45FEF89F061EF89F044EF9E
:1012C00089F06FEF89F01B2A010E1C26000E1D22EB
:1012D0001E221F22D8901F321E321D321C32000ED9
:1012E0001C14166E000E1D14176E000E1E14186EC0
:1012F000FF0E1F14196E1650171018101910D8A4CD
:1013000084EF89F086EF89F063EF89F08EEF89F042
:101310001B06D8901C361D361E361F361EBE93EF98
:1013200089F095EF89F09DEF89F0020E1B609BEF2D
:1013300089F09DEF89F088EF89F01BB0A2EF89F06A
:10134000A4EF89F0A5EF89F01E9ED8901B321BC038
:1013500016F0176A186A196A16C019F0186A176A1F
:10136000166A16501C1217501D1218501E121950D2
:101370001F121A50D8B4BFEF89F0C1EF89F0C9EF3E
:1013800089F015BEC8EF89F0C6EF89F0C9EF89F082
:101390001F8E1CC012F01DC013F01EC014F01FC021
:1013A00015F01200000E2B6E000E286E000E14ECCD
:1013B00094F0650E146EFF0E156ED0EC93F0400E97
:1013C00014EC94F0540E146EFF0E156ED0EC93F0E6
:1013D0002B50D8A4EEEF89F0F0EF89F01AEF8AF0E5
:1013E000400E14EC94F0540E146EFF0E156ED0ECFB
:1013F00093F0040E276E0C0E266E340EE82EFED7E8
:10140000262EFCD7272EFAD7400E14EC94F0430E6C
:10141000146EFF0E156ED0EC93F0040E276E0C0EBA
:10142000266E340EE82EFED7262EFCD7272EFAD7AE
:1014300042EF8AF0400E14EC94F0540E146EFF0E3E
:10144000156ED0EC93F0040E276E0C0E266E340E43
:10145000E82EFED7262EFCD7272EFAD7400E14EC06
:1014600094F0320E146EFF0E156ED0EC93F0040E55
:10147000276E0C0E266E340EE82EFED7262EFCD7D5
:10148000272EFAD7B0EC94F00AC02CF00BC02DF048
:101490002C50291809E12D502A18D8B452EF8AF09F
:1014A00054EF8AF06DEF8AF029502C5C2D50800AA1
:1014B000266E2A50800A2658D8B061EF8AF063EF72
:1014C0008AF067EF8AF0000E2B6E69EF8AF0010E4A
:1014D0002B6E2CC029F02DC02AF08EB472EF8AF04A
:1014E00074EF8AF078EF8AF0010E286E7AEF8AF0B6
:1014F000000E286E2804D8A480EF8AF082EF8AF0CC
:10150000E8EF89F02B50D8A488EF8AF08AEF8AF0B0
:1015100097EF8AF0030E266E980EE82EFED7262E41
:10152000FCD7000E506E060E4F6EA2EF8AF0030E2F
:10153000266E980EE82EFED7262EFCD7000E506E93
:101540000C0E4F6E1200000E1B6E19BEACEF8AF02F
:10155000AAEF8AF0BEEF8AF0191E181E171E161E7B
:10156000151E141E131E126C000E132214221522B7
:101570001622172218221922010E1B6E11BEC5EF6A
:101580008AF0C3EF8AF0D7EF8AF0111E101E0F1EEB
:101590000E1E0D1E0C1E0B1E0A6C000E0B220C22C2
:1015A0000D220E220F2210221122010E1B1A20EEF4
:1015B0001CF0070EDE6AE806FDE21250131014104C
:1015C00015101610171018101910D8B4EAEF8AF079
:1015D000ECEF8AF03EEF8BF0010E1A6EFAEF8AF014
:1015E000D890123613361436153616361736183686
:1015F00019361A2A19AEFFEF8AF001EF8BF0F0EFDF
:101600008AF0D8901C361D361E361F3620362136FD
:101610002236233612500A5C13500B5814500C58C3
:1016200015500D5816500E5817500F581850105886
:1016300019501158D8A01FEF8BF021EF8BF032EF2B
:101640008BF012500A5E13500B5A14500C5A15505E
:101650000D5A16500E5A17500F5A1850105A19504A
:10166000115A1C80D890193218321732163215329E
:101670001432133212321A2E01EF8BF01B50D8B4F1
:1016800044EF8BF046EF8BF056EF8BF0231E221EBB
:10169000211E201E1F1E1E1E1D1E1C6C000E1D2244
:1016A0001E221F2220222122222223221CC00AF0D5
:1016B0001DC00BF01EC00CF01FC00DF020C00EF0BE
:1016C00021C00FF022C010F023C011F01200000E54
:1016D0001B6E11BE70EF8BF06EEF8BF082EF8BF014
:1016E000111E101E0F1E0E1E0D1E0C1E0B1E0A6C50
:1016F000000E0B220C220D220E220F22102211228C
:10170000010E1B6E19BE89EF8BF087EF8BF099EFFE
:101710008BF0191E181E171E161E151E141E131EE2
:10172000126C000E132214221522162217221822E0
:10173000192212501310141015101610171018102B
:101740001910D8B4A6EF8BF0A8EF8BF0F0EF8BF068
:10175000010E1A6EB6EF8BF0D8901236133614368F
:10176000153616361736183619361A2A19AEBBEF43
:101770008BF0BDEF8BF0ACEF8BF012500A5C135086
:101780000B5814500C5815500D5816500E58175031
:101790000F581850105819501158D8A0D2EF8BF08C
:1017A000D4EF8BF0E4EF8BF012500A5E13500B5A1B
:1017B00014500C5A15500D5A16500E5A17500F5AF5
:1017C0001850105A1950115AD8901932183217322D
:1017D000163215321432133212321A2EBDEF8BF03C
:1017E0001B50D8B4F6EF8BF0F8EF8BF008EF8CF0CD
:1017F000111E101E0F1E0E1E0D1E0C1E0B1E0A6C3F
:10180000000E0B220C220D220E220F22102211227A
:101810000AC00AF00BC00BF00CC00CF00DC00DF0AC
:101820000EC00EF00FC00FF010C010F011C011F07C
:10183000120060EC94F0B0EC94F00AC0A4F00BC07D
:10184000A5F00001A5BF30EF8CF0A55107E10A0E0D
:10185000A45DD8B02EEF8CF030EF8CF040EF8CF020
:10186000940E7E6F000E7F6F870E806FFF0E816F6C
:10187000A4C082F0A5C083F014EC92F07AEF8CF053
:10188000A5BF4EEF8CF0A55107E1640EA45DD8B062
:101890004CEF8CF04EEF8CF06CEF8CF0A5BF5AEF54
:1018A0008CF0A55109E10A0EA45DD8A05AEF8CF086
:1018B0005CEF8CF06CEF8CF0940E7E6F000E7F6FFF
:1018C000B80E806FFF0E816FA4C082F0A5C083F0B8
:1018D00014EC92F07AEF8CF0940E7E6F000E7F6F16
:1018E000C80E806FFF0E816FA4C082F0A5C083F088
:1018F00014EC92F0000E14EC94F0940E146E000EA2
:10190000156ED0EC93F0400E14EC94F0A80E146E0B
:10191000FF0E156ED0EC93F08EB491EF8CF093EF38
:101920008CF01BEF8CF0820E0001936FDD0EE82E21
:10193000FED7932FFCD700D08EA4A1EF8CF0A3EF9D
:101940008CF09CEF8CF0A4C04DF0A5C04EF01200BE
:101950000C340D34136E1350D8A4B1EF8CF0B3EFE8
:101960008CF0BDEF8CF0000E0A6E000E0B6E000EB8
:101970000C6E000E0D6E2AEF8DF00AC00EF00BC03B
:101980000FF00CC010F00DC011F0200ECDEF8CF058
:10199000D890113210320F320E32E82EC8EF8CF090
:1019A0000E50126E0C8EFF0E0A16FF0E0B16FF0E57
:1019B0000C16000E0D16960E135E13BEE4EF8CF09F
:1019C000E2EF8CF0FAEF8CF01350800A970FD8B04A
:1019D000ECEF8CF0EEEF8CF0F0EF8CF0B3EF8CF0DE
:1019E000D8900D320C320B320A32133EF0EF8CF0ED
:1019F00012EF8DF01F0E136400EF8DF002EF8DF0EB
:101A00000AEF8DF0B3EF8CF0D8900A360B360C3617
:101A10000D3613061350D8A410EF8DF012EF8DF091
:101A200004EF8DF01250D8B418EF8DF01AEF8DF04E
:101A300022EF8DF00D1E0C1E0B1E0A6C000E0B22E9
:101A40000C220D220AC00AF00BC00BF00CC00CF0E7
:101A50000DC00DF0120020EE1AF0070EDE6AE80647
:101A6000FDE2125013101410151016101710181054
:101A70001910D8B43EEF8DF040EF8DF092EF8DF05D
:101A8000010E226E4EEF8DF0D890123613361436BA
:101A900015361636173618361936222A19AE53EF70
:101AA0008DF055EF8DF044EF8DF0D8901A361B363F
:101AB0001C361D361E361F362036213612500A5C63
:101AC00013500B5814500C5815500D5816500E58F2
:101AD00017500F581850105819501158D8A073EFBC
:101AE0008DF075EF8DF086EF8DF012500A5E135079
:101AF0000B5A14500C5A15500D5A16500E5A1750B6
:101B00000F5A1850105A1950115A1A80D890193279
:101B10001832173216321532143213321232222E84
:101B200055EF8DF01AC00AF01BC00BF01CC00CF072
:101B30001DC00DF01EC00EF01FC00FF020C010F031
:101B400021C011F0120012501310141015101610AD
:101B5000171018101910D8B4B0EF8DF0B2EF8DF047
:101B6000FAEF8DF0010E1A6EC0EF8DF0D89012369C
:101B700013361436153616361736183619361A2A0D
:101B800019AEC5EF8DF0C7EF8DF0B6EF8DF01250A6
:101B90000A5C13500B5814500C5815500D58165021
:101BA0000E5817500F581850105819501158D8A0E7
:101BB000DCEF8DF0DEEF8DF0EEEF8DF012500A5E6F
:101BC00013500B5A14500C5A15500D5A16500E5AE9
:101BD00017500F5A1850105A1950115AD8901932DC
:101BE00018321732163215321432133212321A2EBC
:101BF000C7EF8DF00AC00AF00BC00BF00CC00CF060
:101C00000DC00DF00EC00EF00FC00FF010C010F0A0
:101C100011C011F012000C500D10D8B412EF8EF05C
:101C200014EF8EF01DEF8EF00C500D10D8A41BEFAA
:101C30008EF01DEF8EF022EF8EF00A50CCEC94F077
:101C40006FEF8EF020EE09F00C50D9260D50DA22FD
:101C5000DE50DE10D8B42FEF8EF031EF8EF04CEF67
:101C60008EF020EE09F00C50D9260D50DA2210EE3D
:101C700003F00C50E1260D50E222DE50E65CE65007
:101C8000800A126EDE50800A1258D8B04AEF8EF0E9
:101C90004CEF8EF06FEF8EF020EE03F00C50D92653
:101CA0000D50DA22DECF0EF0DDCF0FF00CC0D9FFE1
:101CB0000DC0DAFFDECF10F0DDCF11F00E50102492
:101CC000D96E0F501120DA6E0AC0DFFF20EE03F04C
:101CD0000C50D9260D50DA22DE2A000EDD22120029
:101CE000000E0F6E0DBE79EF8EF077EF8EF07FEF66
:101CF0008EF00C6C0D1ED8B00D2A010E0F6E0BBEAF
:101D000086EF8EF084EF8EF08CEF8EF00A6C0B1E57
:101D1000D8B00B2A010E0F1A000E116E000E106EB5
:101D20000C500D10D8B497EF8EF099EF8EF0C1EFF4
:101D30008EF0010E0E6EA1EF8EF0D8900C360D369F
:101D40000E2A0DAEA6EF8EF0A8EF8EF09DEF8EF06E
:101D5000D890103611360C500A5C0D500B58D8A094
:101D6000B4EF8EF0B6EF8EF0BBEF8EF00C500A5E43
:101D70000D500B5A1080D8900D320C320E2EA8EF59
:101D80008EF00F50D8B4C7EF8EF0C9EF8EF0CDEFC4
:101D90008EF0106C111ED8B0112A10C00AF011C0BC
:101DA0000BF0120051A0D7EF8EF0D9EF8EF0E3EFD9
:101DB0008EF01CC013F01DC014F01AC015F01BC02B
:101DC00016F0ADEC92F01FBEE8EF8EF0EAEF8EF069
:101DD000F0EF8EF01EC023F01FC024F0F4EF8EF061
:101DE000000E246E000E236E000E226E000E216E79
:101DF00006EF8FF0000E0B6E200E0A6E1AC00CF06C
:101E00001BC00DF00BEC8EF0214A222A2350215CDE
:101E10002250800A206E2450800A2058D8A013EF48
:101E20008FF015EF8FF0FAEF8EF051B01AEF8FF0C0
:101E30001CEF8FF026EF8FF01CC013F01DC014F0C4
:101E40001AC015F01BC016F0ADEC92F01CC00AF0E1
:101E50001DC00BF00DEC93F023500A241A6E245091
:101E60000B201B6E12008A0E5524D96EDA6A010E01
:101E7000DA22000EDF6E9CA440EF8FF042EF8FF06D
:101E800057EF8FF08A0E5524D96EDA6A010EDA22E6
:101E90000101DF8202D857EF8FF00500FA6ECF51B3
:101EA000FD6ED051FE6ED151FF6EFA5012009CA211
:101EB0005CEF8FF05EEF8FF073EF8FF08A0E55249A
:101EC000D96EDA6A010EDA220101DF8402D873EFDB
:101ED0008FF00500FA6ECC51FD6ECD51FE6ECE51E5
:101EE000FF6EFA5012008A0E5524D96EDA6A010E7E
:101EF000DA22DF50D8B47FEF8FF081EF8FF091EFCF
:101F00008FF002D88FEF8FF00500FA6E0101C951F2
:101F1000FD6ECA51FE6ECB51FF6EFA50120093EF68
:101F20008FF0BBEC93F0120005EC94F0F28EF28C83
:101F3000F6EC93F0060E0101896F130E886FAD0E5B
:101F4000E82EFED7882FFCD7892FFAD700D00E01B4
:101F5000BD81000E4E6ECD0E4D6E000E506E060E03
:101F60004F6E60EC82F00009D8A4B9EF8FF0BBEFA0
:101F70008FF0D8EF8FF0F6EC93F0020E0101896F2D
:101F8000040E886FBA0EE82EFED7882FFCD7892F53
:101F9000FAD700F04DC064F14EC065F14FC066F154
:101FA00050C067F150EC85F00001F86FB1EF8FF091
:101FB000F6EC93F0060E0101896F130E886FAD0EDB
:101FC000E82EFED7882FFCD7892FFAD700D0400EF5
:101FD00014EC94F019EC8CF0D2EC89F0B1EF8FF0A6
:101FE00073EF00F08EB0F7EF8FF0F9EF8FF004EFA2
:101FF00090F0FF0E0001EA27FF0EEB23FF0EEC230B
:10200000FF0EED230BEF90F0010E0001EA27000E0A
:10201000EB23EC23ED23EDBF12EF90F010EF90F0E7
:102020001AEF90F0000EEA6F000EEB6F000EEC6FEF
:10203000000EED6FEDBF29EF90F0ED51EC110BE1CB
:10204000810EEA5D3E0EEB59D8A029EF90F02BEF00
:1020500090F033EF90F0800EEA6F3E0EEB6F000EC3
:10206000EC6F000EED6F050E016EEAC002F0EBC0E2
:1020700003F0ECC004F0EDC005F0016642EF90F013
:102080004AEF90F005340532043203320232012E59
:102090003DEF90F002C0F6F003C0F7F0120000012F
:1020A000E86F980E00017E6F000E7F6FE50E806F67
:1020B000FF0E816FE8C082F0836B93C084F094C000
:1020C00085F014EC92F0980E0E6E000E0F6E980EC6
:1020D0000A6E000E0B6E0DEC93F00A50106EEFECD2
:1020E00092F0030E0001976F970EE82EFED7972F00
:1020F000FCD700D0C00E00017E6F000E7F6FF20E85
:10210000806FFF0E816FE8C082F0836B95C084F012
:1021100096C085F014EC92F0C00E0E6E000E0F6E9D
:10212000C00E0A6E000E0B6E0DEC93F00A50106E8E
:10213000EFEC92F0030E0001976F970EE82EFED79A
:10214000972FFCD700D01200000E00017E6F010E09
:102150007F6FD70E806FFF0E816F14EC92F0000E30
:102160000E6E010E0F6E000E0A6E010E0B6E0DEC60
:1021700093F00A50106EEFEC92F0030E0001E96F3D
:10218000970EE82EFED7E92FFCD700D0280E0001CD
:102190007E6F010E7F6F890E806FFE0E816F14ECD3
:1021A00092F0280E0E6E010E0F6E280E0A6E010EB2
:1021B0000B6E0DEC93F00A50106EEFEC92F0030EE4
:1021C0000001E96F970EE82EFED7E92FFCD700D06B
:1021D0000B0E0001946FB80E936FBD0E966FC00E7C
:1021E000956F060E4FEC90F01200000E866E000EFA
:1021F000856E000E826E000E836E000E846E070EDA
:102200008B6E8768B70E886EBF0E896E8A680F0165
:102210002169300E1C6FB00E146F070E296F0C6908
:10222000000E206F000E286F010E136F000E0B6F53
:10223000070E1B6F000E276F000E0A6F000E126F45
:10224000000E1A6F000E1F6F0969116919691E6966
:10225000070E266F0869106918691D690F0E256F32
:10226000170E0E01B06F0B0EF06F080E9C6F0B0E69
:10227000ED6F0A0E9E6F090E9D6F090EF86F12002A
:10228000000E0F6E000E0E6E0C500D10D8B44BEFFA
:1022900091F04DEF91F075EF91F0010E106E55EF4A
:1022A00091F0D8900C360D36102A0DAE5AEF91F001
:1022B0005CEF91F051EF91F0D8900E360F360C5044
:1022C0000A5C0D500B58D8A068EF91F06AEF91F0BE
:1022D0006FEF91F00C500A5E0D500B5A0E80D890A3
:1022E0000D320C32102E5CEF91F00EC00AF00FC0D0
:1022F0000BF012000E01C09B660E0A6E1E0E0B6ED6
:10230000010E0C6E94EC94F0080E9E6E900E9C6E76
:10231000240E9D6E220E9A6E000E9B6E9E0E0A6E0D
:10232000290E0B6E010E0C6EA2EC94F0880E0A6E54
:10233000290E0B6E010E0C6E9BEC94F08E0E0A6E45
:10234000290E0B6E010E0C6EA9EC94F0000E00012C
:10235000FC6F000E556E000E546E000E536E0E0193
:10236000C08B120078C07CF079C07DF0000E0001B7
:10237000EF6F000EEE6FD0EF91F076C060F077C097
:1023800061F07C0E626F000E636F7AC064F07BC0F8
:1023900065F0BDEC86F000016051EE276151EF233E
:1023A0007CC0F6FF7DC0F7FF000EF86E0800F55008
:1023B0000009D8A4DEEF91F0E0EF91F0BDEF91F0CD
:1023C000EEC076F0EFC077F012000CC010F00DC038
:1023D00011F00AC012F00BC013F010500E6E115025
:1023E0000F6E104A112A0EC0F6FF0FC0F7FF000E45
:1023F000F86E12C0D9FF13C0DAFF124A132A0E0E6C
:10240000F76403D00800F55005D0F6CFE9FFF7CF09
:10241000EAFFEF50DF6EDF50D8A411EF92F013EF18
:1024200092F0EDEF91F01200820E0001866F000E27
:10243000876F7EC088F07FC089F0000E8C6F000E21
:102440008B6F000E926F000E916F880E766F000EEC
:10245000776F80C078F081C079F0860E7A6F000EB9
:102460007B6FB2EC91F000018B517E25D96E8C51BF
:102470007F21DA6E000EDF6E1200080E0E019A6FD9
:10248000800E986F240E996FCF0E966F000E976F87
:10249000000E0A6E000E0B6E000E0C6E86EC94F0B1
:1024A000000E0A6E000E0B6E000E0C6E7FEC94F0A8
:1024B000000E0A6E000E0B6E000E0C6E8DEC94F08A
:1024C000000E0001FB6F12000E01C591F280E40EB8
:1024D0000A6E1F0E0B6E010E0C6E78EC94F00E015E
:1024E000BD81C593F2829C0E0A6E290E0B6E010E01
:1024F0000C6E71EC94F00E01BD83C595F2849A0EBA
:102500000A6E290E0B6E010E0C6E6AEC94F00E0131
:10251000BD851200000E241A000E251A000E261A80
:10252000800E271A20C00AF021C00BF022C00CF048
:1025300023C00DF024C00EF025C00FF026C010F00F
:1025400027C011F000EC80F00AC020F00BC021F091
:102550000CC022F00DC023F01200000E196E000E08
:10256000186EBEEF92F017C00AF00B6A15C00CF09F
:1025700016C00DF00BEC8EF0184A192A18501324CF
:10258000D96E19501420DA6EDF50176E1750D8A488
:10259000CCEF92F0CEEF92F0B3EF92F012001DBEAE
:1025A000DCEF92F01D5006E11C04D8B0DAEF92F097
:1025B000DCEF92F0EAEF92F01CC01EF01DC01FF09D
:1025C0001E1E1F1E1E4A1F2A1EC01CF01FC01DF00B
:1025D000EEEF92F01CC01CF01DC01DF01200000EAA
:1025E000116EFDEF92F011500E24D96E000E0F20E7
:1025F000DA6EDF5049EC94F0112A1050115CD8A02B
:1026000004EF93F006EF93F0F3EF92F00A0E49EC2B
:1026100094F00D0E49EC94F012000AC00CF00BC0BF
:102620000DF015EF93F00A4A0B2A0AC0D9FF0BC030
:10263000DAFFDF50D8A41FEF93F021EF93F013EFF0
:1026400093F00C500A5C0A6E0D500B580B6E120082
:1026500028C00AF029C00BF02AC00CF02BC00DF0E6
:10266000A8EC8CF00AC014F00BC015F00F0E176E1A
:10267000E00E166EE3EC93F014C028F015C029F0BC
:1026800012000101C351C411C511D8B44AEF93F02F
:102690004CEF93F059EF93F002D859EF93F0050007
:1026A000FA6EC351FD6EC451FE6EC551FF6EFA50F5
:1026B000120012000101C651C711C811D8B463EF4E
:1026C00093F065EF93F072EF93F002D872EF93F00E
:1026D0000500FA6EC651FD6EC751FE6EC851FF6E01
:1026E000FA50120012000001FD51FE11FF11D8B482
:1026F0007CEF93F07EEF93F08BEF93F002D88BEFAB
:1027000093F00500FA6EFD51FD6EFE51FE6EFF5115
:10271000FF6EFA5012001200000E0E6E9AEF93F048
:102720000E500B24D96E000E0C20DA6EDF503DECFB
:1027300094F00E2A0D500E5CD8A0A1EF93F0A3EFF9
:1027400093F090EF93F0120001EE8AF0300EEE6AF3
:10275000E806FDE100EEEAF0130EEE6AE806FDE1A0
:1027600000EE4DF0090EEE6AE806FDE15690569235
:10277000000194EF8FF0920E5524D96EDA6A010EA3
:10278000DA2298CFDFFF552A070E5564CAEF93F07F
:10279000CCEF93F0CEEF93F0000E556E532A12005B
:1027A000160E0A6E000E0B6E14C00CF015C00DF064
:1027B000E5EC91F0160E0B6E000E0C6E0F0E0D6E0A
:1027C0008CEC93F0120014501602F3CF18F0F4CFF3
:1027D00019F014501702F350192615501602F35031
:1027E000192618C014F019C015F01200FE0E3DECA9
:1027F00094F0510E3DEC94F0060E0B6E300EE82E68
:10280000FED70B2EFCD700D01200CAEC94F023ECBC
:1028100094F0F5EC90F031EC94F064EC92F07AECFA
:1028200091F03DEC92F012000B6EFE0E3DEC94F038
:10283000450E3DEC94F00B503DEC94F0850EE82EE7
:10284000FED700F01200000E0E01DC6F000EDD6FEF
:10285000000EDE6F000EDF6F000EE06F000EE16F06
:102860001200610E0E01D36F000ED56F000ED76FF0
:10287000050ED96F000ED86F12000A6E0E01C8AD9A
:1028800044EF94F046EF94F03EEF94F00AC095FECA
:1028900012000A6E0E01C8A950EF94F052EF94F0A6
:1028A0004AEF94F00AC099FF1200310E7B6E0B5074
:1028B0007A6E0AC079FF808000F000F07C50120030
:1028C000000E0001EA6F000EEB6F000EEC6F000EC1
:1028D000ED6F12000AC0C3F10BC0C4F10CC0C5F10A
:1028E00012000AC0C6F10BC0C7F10CC0C8F112003B
:1028F0000AC0FDF00BC0FEF00CC0FFF012000AC0D1
:10290000BDF10BC0BEF10CC0BFF112000AC0C0F196
:102910000BC0C1F10CC0C2F112000AC0BAF10BC069
:10292000BBF10CC0BCF112000AC0D2F10BC0D3F154
:102930000CC0D4F112000AC0CCF10BC0CDF10CC018
:10294000CEF112000AC0CFF10BC0D0F10CC0D1F112
:1029500012000AC0C9F10BC0CAF10CC0CBF11200C1
:10296000F6C00AF0F7C00BF012000E01C59541EC5D
:1029700093F012000E01C5935AEC93F012000E0171
:10298000C59173EC93F012009C989C881200BBECEC
:1029900093F01200F29A12001200120012001200BC
:020000040020DA
:10000000FFFFFFFFFFFFFFFFFFFFFFFFFFFFFFFF00
:10001000FFFFFFFFFFFFFFFFFFFFFFFFFFFFFFFFF0
:10002000FFFFFFFFFFFFFFFFFFFFFFFFFFFFFFFFE0
:10003000FFFFFFFFFFFFFFFFFFFFFFFFFFFFFFFFD0
:10004000FFFFFFFFFFFFFFFFFFFFFFFFFFFFFFFFC0
:10005000FFFFFFFFFFFFFFFFFFFFFFFFFFFFFFFFB0
:10006000FFFFFFFFFFFFFFFFFFFFFFFFFFFFFFFFA0
:10007000FFFFFFFFFFFFFFFFFFFFFFFFFFFFFFFF90
:10008000FFFFFFFFFFFFFFFFFFFFFFFFFFFFFFFF80
:10009000FFFFFFFFFFFFFFFFFFFFFFFFFFFFFFFF70
:1000A000FFFFFFFFFFFFFFFFFFFFFFFFFFFFFFFF60
:1000B000FFFFFFFFFFFFFFFFFFFFFFFFFFFFFFFF50
:1000C000FFFFFFFFFFFFFFFFFFFFFFFFFFFFFFFF40
:1000D000FFFFFFFFFFFFFFFFFFFFFFFFFFFFFFFF30
:1000E000FFFFFFFFFFFFFFFFFFFFFFFFFFFFFFFF20
:1000F000FFFFFFFFFFFFFFFFFFFFFFFFFFFFFFFF10
:020000040030CA
:0C000000ECFFFFFF9FFFFFFFFFFFFFFF73
:00000001FF
